{"abi":[{"type":"constructor","inputs":[{"name":"_constitutionStylus","type":"address","internalType":"address"}],"stateMutability":"nonpayable"},{"type":"function","name":"constitutionStylus","inputs":[],"outputs":[{"name":"","type":"address","internalType":"address"}],"stateMutability":"view"},{"type":"function","name":"validateUserOp","inputs":[{"name":"userOpHash","type":"bytes32","internalType":"bytes32"},{"name":"kernelSignature","type":"bytes","internalType":"bytes"},{"name":"policyData","type":"bytes","internalType":"bytes"}],"outputs":[{"name":"","type":"uint256","internalType":"uint256"}],"stateMutability":"view"},{"type":"event","name":"SemanticValidation","inputs":[{"name":"agent","type":"address","indexed":true,"internalType":"address"},{"name":"approved","type":"bool","indexed":false,"internalType":"bool"},{"name":"similarity","type":"int32","indexed":false,"internalType":"int32"}],"anonymous":false}],"bytecode":{"object":"0x60a060405234801561000f575f5ffd5b50604051610725380380610725833981810160405281019061003191906100c9565b8073ffffffffffffffffffffffffffffffffffffffff1660808173ffffffffffffffffffffffffffffffffffffffff1681525050506100f4565b5f5ffd5b5f73ffffffffffffffffffffffffffffffffffffffff82169050919050565b5f6100988261006f565b9050919050565b6100a88161008e565b81146100b2575f5ffd5b50565b5f815190506100c38161009f565b92915050565b5f602082840312156100de576100dd61006b565b5b5f6100eb848285016100b5565b91505092915050565b6080516106126101135f395f818161011001526101ef01526106125ff3fe608060405234801561000f575f5ffd5b5060043610610034575f3560e01c8063483c714614610038578063cc7098b814610068575b5f5ffd5b610052600480360381019061004d91906102ad565b610086565b60405161005f9190610356565b60405180910390f35b6100706101ed565b60405161007d91906103ae565b60405180910390f35b5f6102008383905010156100cf576040517f08c379a00000000000000000000000000000000000000000000000000000000081526004016100c690610421565b60405180910390fd5b5f63abcdef0184845f90610200926100e993929190610447565b6040516020016100fb93929190610500565b60405160208183030381529060405290505f5f7f000000000000000000000000000000000000000000000000000000000000000073ffffffffffffffffffffffffffffffffffffffff16836040516101539190610571565b5f60405180830381855afa9150503d805f811461018b576040519150601f19603f3d011682016040523d82523d5f602084013e610190565b606091505b5091509150816101a657600193505050506101e4565b60208151106101dc575f818060200190518101906101c491906105b1565b9050600181036101da575f9450505050506101e4565b505b600193505050505b95945050505050565b7f000000000000000000000000000000000000000000000000000000000000000081565b5f5ffd5b5f5ffd5b5f819050919050565b61022b81610219565b8114610235575f5ffd5b50565b5f8135905061024681610222565b92915050565b5f5ffd5b5f5ffd5b5f5ffd5b5f5f83601f84011261026d5761026c61024c565b5b8235905067ffffffffffffffff81111561028a57610289610250565b5b6020830191508360018202830111156102a6576102a5610254565b5b9250929050565b5f5f5f5f5f606086880312156102c6576102c5610211565b5b5f6102d388828901610238565b955050602086013567ffffffffffffffff8111156102f4576102f3610215565b5b61030088828901610258565b9450945050604086013567ffffffffffffffff81111561032357610322610215565b5b61032f88828901610258565b92509250509295509295909350565b5f819050919050565b6103508161033e565b82525050565b5f6020820190506103695f830184610347565b92915050565b5f73ffffffffffffffffffffffffffffffffffffffff82169050919050565b5f6103988261036f565b9050919050565b6103a88161038e565b82525050565b5f6020820190506103c15f83018461039f565b92915050565b5f82825260208201905092915050565b7f496e76616c696420496e74656e7420566563746f72206c656e677468000000005f82015250565b5f61040b601c836103c7565b9150610416826103d7565b602082019050919050565b5f6020820190508181035f830152610438816103ff565b9050919050565b5f5ffd5b5f5ffd5b5f5f8585111561045a5761045961043f565b5b8386111561046b5761046a610443565b5b6001850283019150848603905094509492505050565b5f63ffffffff82169050919050565b5f8160e01b9050919050565b5f6104a682610490565b9050919050565b6104be6104b982610481565b61049c565b82525050565b5f81905092915050565b828183375f83830152505050565b5f6104e783856104c4565b93506104f48385846104ce565b82840190509392505050565b5f61050b82866104ad565b60048201915061051c8284866104dc565b9150819050949350505050565b5f81519050919050565b8281835e5f83830152505050565b5f61054b82610529565b61055581856104c4565b9350610565818560208601610533565b80840191505092915050565b5f61057c8284610541565b915081905092915050565b6105908161033e565b811461059a575f5ffd5b50565b5f815190506105ab81610587565b92915050565b5f602082840312156105c6576105c5610211565b5b5f6105d38482850161059d565b9150509291505056fea2646970667358221220d269d16fe5295f262b3047334d95cf25bf9e035935289175fc5ec2552868967e64736f6c63430008230033","linkReferences":{}},"methodIdentifiers":{"constitutionStylus()":"cc7098b8","validateUserOp(bytes32,bytes,bytes)":"483c7146"},"id":23}