{"abi":[{"type":"constructor","inputs":[{"name":"_constitutionStylus","type":"address","internalType":"address"}],"stateMutability":"nonpayable"},{"type":"function","name":"constitutionStylus","inputs":[],"outputs":[{"name":"","type":"address","internalType":"address"}],"stateMutability":"view"},{"type":"function","name":"disableSession","inputs":[{"name":"permissionId","type":"bytes32","internalType":"bytes32"}],"outputs":[],"stateMutability":"nonpayable"},{"type":"function","name":"enableSession","inputs":[{"name":"account","type":"address","internalType":"address"},{"name":"permissionId","type":"bytes32","internalType":"bytes32"},{"name":"enableData","type":"bytes","internalType":"bytes"}],"outputs":[],"stateMutability":"nonpayable"},{"type":"function","name":"isSessionEnabled","inputs":[{"name":"account","type":"address","internalType":"address"},{"name":"permissionId","type":"bytes32","internalType":"bytes32"}],"outputs":[{"name":"","type":"bool","internalType":"bool"}],"stateMutability":"view"},{"type":"function","name":"validateSessionParams","inputs":[{"name":"permissionId","type":"bytes32","internalType":"bytes32"},{"name":"userOp","type":"tuple","internalType":"struct PackedUserOperation","components":[{"name":"sender","type":"address","internalType":"address"},{"name":"nonce","type":"uint256","internalType":"uint256"},{"name":"initCode","type":"bytes","internalType":"bytes"},{"name":"callData","type":"bytes","internalType":"bytes"},{"name":"accountGasLimits","type":"bytes32","internalType":"bytes32"},{"name":"preVerificationGas","type":"uint256","internalType":"uint256"},{"name":"gasFees","type":"bytes32","internalType":"bytes32"},{"name":"paymasterAndData","type":"bytes","internalType":"bytes"},{"name":"signature","type":"bytes","internalType":"bytes"}]},{"name":"","type":"bytes32","internalType":"bytes32"}],"outputs":[{"name":"","type":"uint256","internalType":"uint256"}],"stateMutability":"view"},{"type":"event","name":"SessionDisabled","inputs":[{"name":"account","type":"address","indexed":true,"internalType":"address"},{"name":"permissionId","type":"bytes32","indexed":true,"internalType":"bytes32"}],"anonymous":false},{"type":"event","name":"SessionEnabled","inputs":[{"name":"account","type":"address","indexed":true,"internalType":"address"},{"name":"permissionId","type":"bytes32","indexed":true,"internalType":"bytes32"}],"anonymous":false},{"type":"error","name":"InvalidIntentVectorLength","inputs":[]},{"type":"error","name":"SessionNotEnabled","inputs":[]}],"bytecode":{"object":"0x60a060405234801561000f575f5ffd5b5060405161100c38038061100c833981810160405281019061003191906100c9565b8073ffffffffffffffffffffffffffffffffffffffff1660808173ffffffffffffffffffffffffffffffffffffffff1681525050506100f4565b5f5ffd5b5f73ffffffffffffffffffffffffffffffffffffffff82169050919050565b5f6100988261006f565b9050919050565b6100a88161008e565b81146100b2575f5ffd5b50565b5f815190506100c38161009f565b92915050565b5f602082840312156100de576100dd61006b565b5b5f6100eb848285016100b5565b91505092915050565b608051610ef96101135f395f8181610436015261050b0152610ef95ff3fe608060405234801561000f575f5ffd5b5060043610610055575f3560e01c80631280fc99146100595780632d62914314610089578063850dc2f9146100a5578063cc7098b8146100d5578063f42c859d146100f3575b5f5ffd5b610073600480360381019061006e91906106bf565b61010f565b6040516100809190610717565b60405180910390f35b6100a3600480360381019061009e9190610791565b610175565b005b6100bf60048036038101906100ba9190610825565b6102e5565b6040516100cc91906108a9565b60405180910390f35b6100dd610509565b6040516100ea91906108d1565b60405180910390f35b61010d600480360381019061010891906108ea565b61052d565b005b5f6102005f5f8573ffffffffffffffffffffffffffffffffffffffff1673ffffffffffffffffffffffffffffffffffffffff1681526020019081526020015f205f8481526020019081526020015f20805461016990610942565b90501015905092915050565b5f82828101906101859190610aaa565b9050610200815110156101c4576040517ffcfdee7a00000000000000000000000000000000000000000000000000000000815260040160405180910390fd5b5f61020067ffffffffffffffff8111156101e1576101e0610986565b5b6040519080825280601f01601f1916602001820160405280156102135781602001600182028036833780820191505090505b50905060208201602082015f5b61020081101561023d578083015181830152602081019050610220565b505050805f5f8873ffffffffffffffffffffffffffffffffffffffff1673ffffffffffffffffffffffffffffffffffffffff1681526020019081526020015f205f8781526020019081526020015f2090816102989190610cac565b50848673ffffffffffffffffffffffffffffffffffffffff167fc12b6406d583601bc36a1251722280f005fe1957696105b0f91a542103c953fd60405160405180910390a3505050505050565b5f5f5f5f855f0160208101906102fb9190610d7b565b73ffffffffffffffffffffffffffffffffffffffff1673ffffffffffffffffffffffffffffffffffffffff1681526020019081526020015f205f8681526020019081526020015f20805461034e90610942565b80601f016020809104026020016040519081016040528092919081815260200182805461037a90610942565b80156103c55780601f1061039c576101008083540402835291602001916103c5565b820191905f5260205f20905b8154815290600101906020018083116103a857829003601f168201915b5050505050905061020081511015610409576040517f5100663800000000000000000000000000000000000000000000000000000000815260040160405180910390fd5b5f63abcdef0182604051602001610421929190610e31565b60405160208183030381529060405290505f5f7f000000000000000000000000000000000000000000000000000000000000000073ffffffffffffffffffffffffffffffffffffffff16836040516104799190610e58565b5f60405180830381855afa9150503d805f81146104b1576040519150601f19603f3d011682016040523d82523d5f602084013e6104b6565b606091505b50915091508115806104c9575060208151105b806104e857506001818060200190518101906104e59190610e98565b14155b156104fa576001945050505050610502565b5f9450505050505b9392505050565b7f000000000000000000000000000000000000000000000000000000000000000081565b5f5f3373ffffffffffffffffffffffffffffffffffffffff1673ffffffffffffffffffffffffffffffffffffffff1681526020019081526020015f205f8281526020019081526020015f205f61058391906105ca565b803373ffffffffffffffffffffffffffffffffffffffff167f10103b778a5e09e8bcc680439d97711489525190a1fe679251002e893f9ea56360405160405180910390a350565b5080546105d690610942565b5f825580601f106105e8575050610602565b601f0160209004905f5260205f20906106019190610604565b5b565b5f5b8082111561061c578281015f9055600101610606565b505050565b5f604051905090565b5f5ffd5b5f5ffd5b5f73ffffffffffffffffffffffffffffffffffffffff82169050919050565b5f61065b82610632565b9050919050565b61066b81610651565b8114610675575f5ffd5b50565b5f8135905061068681610662565b92915050565b5f819050919050565b61069e8161068c565b81146106a8575f5ffd5b50565b5f813590506106b981610695565b92915050565b5f5f604083850312156106d5576106d461062a565b5b5f6106e285828601610678565b92505060206106f3858286016106ab565b9150509250929050565b5f8115159050919050565b610711816106fd565b82525050565b5f60208201905061072a5f830184610708565b92915050565b5f5ffd5b5f5ffd5b5f5ffd5b5f5f83601f84011261075157610750610730565b5b8235905067ffffffffffffffff81111561076e5761076d610734565b5b60208301915083600182028301111561078a57610789610738565b5b9250929050565b5f5f5f5f606085870312156107a9576107a861062a565b5b5f6107b687828801610678565b94505060206107c7878288016106ab565b935050604085013567ffffffffffffffff8111156107e8576107e761062e565b5b6107f48782880161073c565b925092505092959194509250565b5f5ffd5b5f610120828403121561081c5761081b610802565b5b81905092915050565b5f5f5f6060848603121561083c5761083b61062a565b5b5f610849868287016106ab565b935050602084013567ffffffffffffffff81111561086a5761086961062e565b5b61087686828701610806565b9250506040610887868287016106ab565b9150509250925092565b5f819050919050565b6108a381610891565b82525050565b5f6020820190506108bc5f83018461089a565b92915050565b6108cb81610651565b82525050565b5f6020820190506108e45f8301846108c2565b92915050565b5f602082840312156108ff576108fe61062a565b5b5f61090c848285016106ab565b91505092915050565b7f4e487b71000000000000000000000000000000000000000000000000000000005f52602260045260245ffd5b5f600282049050600182168061095957607f821691505b60208210810361096c5761096b610915565b5b50919050565b5f5ffd5b5f601f19601f8301169050919050565b7f4e487b71000000000000000000000000000000000000000000000000000000005f52604160045260245ffd5b6109bc82610976565b810181811067ffffffffffffffff821117156109db576109da610986565b5b80604052505050565b5f6109ed610621565b90506109f982826109b3565b919050565b5f67ffffffffffffffff821115610a1857610a17610986565b5b610a2182610976565b9050602081019050919050565b828183375f83830152505050565b5f610a4e610a49846109fe565b6109e4565b905082815260208101848484011115610a6a57610a69610972565b5b610a75848285610a2e565b509392505050565b5f82601f830112610a9157610a90610730565b5b8135610aa1848260208601610a3c565b91505092915050565b5f60208284031215610abf57610abe61062a565b5b5f82013567ffffffffffffffff811115610adc57610adb61062e565b5b610ae884828501610a7d565b91505092915050565b5f81519050919050565b5f819050815f5260205f209050919050565b5f6020601f8301049050919050565b5f82821b905092915050565b5f60088302610b577fffffffffffffffffffffffffffffffffffffffffffffffffffffffffffffffff82610b1c565b610b618683610b1c565b95508019841693508086168417925050509392505050565b5f819050919050565b5f610b9c610b97610b9284610891565b610b79565b610891565b9050919050565b5f819050919050565b610bb583610b82565b610bc9610bc182610ba3565b848454610b28565b825550505050565b5f5f905090565b610be0610bd1565b610beb818484610bac565b505050565b5f5b82811015610c1157610c065f828401610bd8565b600181019050610bf2565b505050565b601f821115610c645782821115610c6357610c3081610afb565b610c3983610b0d565b610c4285610b0d565b6020861015610c4f575f90505b808301610c5e82840382610bf0565b505050505b5b505050565b5f82821c905092915050565b5f610c845f1984600802610c69565b1980831691505092915050565b5f610c9c8383610c75565b9150826002028217905092915050565b610cb582610af1565b67ffffffffffffffff811115610cce57610ccd610986565b5b610cd88254610942565b610ce3828285610c16565b5f60209050601f831160018114610d14575f8415610d02578287015190505b610d0c8582610c91565b865550610d73565b601f198416610d2286610afb565b5f5b82811015610d4957848901518255600182019150602085019450602081019050610d24565b86831015610d665784890151610d62601f891682610c75565b8355505b6001600288020188555050505b505050505050565b5f60208284031215610d9057610d8f61062a565b5b5f610d9d84828501610678565b91505092915050565b5f63ffffffff82169050919050565b5f8160e01b9050919050565b5f610dcb82610db5565b9050919050565b610de3610dde82610da6565b610dc1565b82525050565b5f81905092915050565b8281835e5f83830152505050565b5f610e0b82610af1565b610e158185610de9565b9350610e25818560208601610df3565b80840191505092915050565b5f610e3c8285610dd2565b600482019150610e4c8284610e01565b91508190509392505050565b5f610e638284610e01565b915081905092915050565b610e7781610891565b8114610e81575f5ffd5b50565b5f81519050610e9281610e6e565b92915050565b5f60208284031215610ead57610eac61062a565b5b5f610eba84828501610e84565b9150509291505056fea2646970667358221220f76ef425ff977ca1357cd2d7dc5fc772012aa85e0bb011540ffd2037974671af64736f6c63430008230033","linkReferences":{}},"methodIdentifiers":{"constitutionStylus()":"cc7098b8","disableSession(bytes32)":"f42c859d","enableSession(address,bytes32,bytes)":"2d629143","isSessionEnabled(address,bytes32)":"1280fc99","validateSessionParams(bytes32,(address,uint256,bytes,bytes,bytes32,uint256,bytes32,bytes,bytes),bytes32)":"850dc2f9"},"id":19}