{"abi":[{"type":"constructor","inputs":[],"stateMutability":"nonpayable"},{"type":"function","name":"USDC_ERC20","inputs":[],"outputs":[{"name":"","type":"address","internalType":"address"}],"stateMutability":"view"},{"type":"function","name":"batchSettle","inputs":[{"name":"amounts","type":"uint256[]","internalType":"uint256[]"},{"name":"commitments","type":"bytes32[]","internalType":"bytes32[]"}],"outputs":[],"stateMutability":"nonpayable"},{"type":"function","name":"fastBalanceOf","inputs":[{"name":"account","type":"address","internalType":"address"}],"outputs":[{"name":"","type":"uint256","internalType":"uint256"}],"stateMutability":"view"},{"type":"function","name":"owner","inputs":[],"outputs":[{"name":"","type":"address","internalType":"address"}],"stateMutability":"view"},{"type":"function","name":"settle","inputs":[{"name":"amount","type":"uint256","internalType":"uint256"},{"name":"commitment","type":"bytes32","internalType":"bytes32"}],"outputs":[],"stateMutability":"nonpayable"},{"type":"event","name":"Settled","inputs":[{"name":"agent","type":"address","indexed":true,"internalType":"address"},{"name":"amount","type":"uint256","indexed":false,"internalType":"uint256"},{"name":"commitment","type":"bytes32","indexed":false,"internalType":"bytes32"}],"anonymous":false}],"bytecode":{"object":"0x60a0604052348015600e575f5ffd5b503373ffffffffffffffffffffffffffffffffffffffff1660808173ffffffffffffffffffffffffffffffffffffffff16815250506080516106ab61005b5f395f6101ef01526106ab5ff3fe608060405234801561000f575f5ffd5b5060043610610055575f3560e01c806363d75ad5146100595780638da5cb5b14610075578063a1ab461d14610093578063ae7691dd146100c3578063c54fc656146100e1575b5f5ffd5b610073600480360381019061006e91906103a3565b6100fd565b005b61007d6101ed565b60405161008a9190610460565b60405180910390f35b6100ad60048036038101906100a891906104a3565b610211565b6040516100ba91906104e6565b60405180910390f35b6100cb610279565b6040516100d89190610460565b60405180910390f35b6100fb60048036038101906100f6919061055c565b610291565b005b5f848490509050828290508114610149576040517f08c379a0000000000000000000000000000000000000000000000000000000008152600401610140906105f4565b60405180910390fd5b5f5f90505b818110156101e5573373ffffffffffffffffffffffffffffffffffffffff167f22f68de1983d980ae3f96a85b07d13614cf2fc6966b3c4c197fe099ef00263ea8787848181106101a1576101a0610612565b5b905060200201358686858181106101bb576101ba610612565b5b905060200201356040516101d092919061064e565b60405180910390a2808060010191505061014e565b505050505050565b7f000000000000000000000000000000000000000000000000000000000000000081565b5f5f73777777777777777777777777777777777777777790505f6040517f70a08231000000000000000000000000000000000000000000000000000000008152846004820152602081602483865afa80610269575f5ffd5b8151925050508092505050919050565b73777777777777777777777777777777777777777781565b3373ffffffffffffffffffffffffffffffffffffffff167f22f68de1983d980ae3f96a85b07d13614cf2fc6966b3c4c197fe099ef00263ea83836040516102d992919061064e565b60405180910390a25050565b5f5ffd5b5f5ffd5b5f5ffd5b5f5ffd5b5f5ffd5b5f5f83601f84011261030e5761030d6102ed565b5b8235905067ffffffffffffffff81111561032b5761032a6102f1565b5b602083019150836020820283011115610347576103466102f5565b5b9250929050565b5f5f83601f840112610363576103626102ed565b5b8235905067ffffffffffffffff8111156103805761037f6102f1565b5b60208301915083602082028301111561039c5761039b6102f5565b5b9250929050565b5f5f5f5f604085870312156103bb576103ba6102e5565b5b5f85013567ffffffffffffffff8111156103d8576103d76102e9565b5b6103e4878288016102f9565b9450945050602085013567ffffffffffffffff811115610407576104066102e9565b5b6104138782880161034e565b925092505092959194509250565b5f73ffffffffffffffffffffffffffffffffffffffff82169050919050565b5f61044a82610421565b9050919050565b61045a81610440565b82525050565b5f6020820190506104735f830184610451565b92915050565b61048281610440565b811461048c575f5ffd5b50565b5f8135905061049d81610479565b92915050565b5f602082840312156104b8576104b76102e5565b5b5f6104c58482850161048f565b91505092915050565b5f819050919050565b6104e0816104ce565b82525050565b5f6020820190506104f95f8301846104d7565b92915050565b610508816104ce565b8114610512575f5ffd5b50565b5f81359050610523816104ff565b92915050565b5f819050919050565b61053b81610529565b8114610545575f5ffd5b50565b5f8135905061055681610532565b92915050565b5f5f60408385031215610572576105716102e5565b5b5f61057f85828601610515565b925050602061059085828601610548565b9150509250929050565b5f82825260208201905092915050565b7f4172726179206d69736d617463680000000000000000000000000000000000005f82015250565b5f6105de600e8361059a565b91506105e9826105aa565b602082019050919050565b5f6020820190508181035f83015261060b816105d2565b9050919050565b7f4e487b71000000000000000000000000000000000000000000000000000000005f52603260045260245ffd5b61064881610529565b82525050565b5f6040820190506106615f8301856104d7565b61066e602083018461063f565b939250505056fea2646970667358221220a3d5c802d919b87055c32736a1f7cd5510d465dc0362d325583dd9bab1fd18cc64736f6c63430008230033","linkReferences":{}},"methodIdentifiers":{"USDC_ERC20()":"ae7691dd","batchSettle(uint256[],bytes32[])":"63d75ad5","fastBalanceOf(address)":"a1ab461d","owner()":"8da5cb5b","settle(uint256,bytes32)":"c54fc656"},"id":0}