{"abi":[{"type":"constructor","inputs":[{"name":"_usdc","type":"address","internalType":"address"},{"name":"_facilitator","type":"address","internalType":"address"}],"stateMutability":"nonpayable"},{"type":"function","name":"facilitator","inputs":[],"outputs":[{"name":"","type":"address","internalType":"address"}],"stateMutability":"view"},{"type":"function","name":"settle","inputs":[{"name":"amount","type":"uint256","internalType":"uint256"},{"name":"commitment","type":"bytes32","internalType":"bytes32"}],"outputs":[],"stateMutability":"nonpayable"},{"type":"function","name":"usdc","inputs":[],"outputs":[{"name":"","type":"address","internalType":"contract IERC20"}],"stateMutability":"view"},{"type":"function","name":"verify_receipt","inputs":[{"name":"commitment","type":"bytes32","internalType":"bytes32"},{"name":"metadata_url","type":"string","internalType":"string"}],"outputs":[],"stateMutability":"nonpayable"},{"type":"event","name":"ReceiptStored","inputs":[{"name":"commitment","type":"bytes32","indexed":true,"internalType":"bytes32"},{"name":"metadata_url","type":"string","indexed":false,"internalType":"string"}],"anonymous":false},{"type":"event","name":"Settled","inputs":[{"name":"agent","type":"address","indexed":true,"internalType":"address"},{"name":"amount","type":"uint256","indexed":false,"internalType":"uint256"},{"name":"commitment","type":"bytes32","indexed":true,"internalType":"bytes32"}],"anonymous":false}],"bytecode":{"object":"0x60a060405234801561000f575f5ffd5b5060405161080a38038061080a83398181016040528101906100319190610109565b8173ffffffffffffffffffffffffffffffffffffffff1660808173ffffffffffffffffffffffffffffffffffffffff1681525050805f5f6101000a81548173ffffffffffffffffffffffffffffffffffffffff021916908373ffffffffffffffffffffffffffffffffffffffff1602179055505050610147565b5f5ffd5b5f73ffffffffffffffffffffffffffffffffffffffff82169050919050565b5f6100d8826100af565b9050919050565b6100e8816100ce565b81146100f2575f5ffd5b50565b5f81519050610103816100df565b92915050565b5f5f6040838503121561011f5761011e6100ab565b5b5f61012c858286016100f5565b925050602061013d858286016100f5565b9150509250929050565b6080516106a56101655f395f818160c4015261014b01526106a55ff3fe608060405234801561000f575f5ffd5b506004361061004a575f3560e01c80633e413bee1461004e5780635423513c1461006c5780637797cee414610088578063c54fc656146100a6575b5f5ffd5b6100566100c2565b6040516100639190610312565b60405180910390f35b610086600480360381019061008191906103c7565b6100e6565b005b610090610125565b60405161009d9190610444565b60405180910390f35b6100c060048036038101906100bb9190610490565b610149565b005b7f000000000000000000000000000000000000000000000000000000000000000081565b827f7a86fb0ef44f50c45f22e8917e6f8a5759e5fa5ad01142d9b836feff3c6836a18383604051610118929190610528565b60405180910390a2505050565b5f5f9054906101000a900473ffffffffffffffffffffffffffffffffffffffff1681565b7f000000000000000000000000000000000000000000000000000000000000000073ffffffffffffffffffffffffffffffffffffffff166323b872dd335f5f9054906101000a900473ffffffffffffffffffffffffffffffffffffffff16856040518463ffffffff1660e01b81526004016101c693929190610559565b6020604051808303815f875af11580156101e2573d5f5f3e3d5ffd5b505050506040513d601f19601f8201168201806040525081019061020691906105c3565b610245576040517f08c379a000000000000000000000000000000000000000000000000000000000815260040161023c90610638565b60405180910390fd5b803373ffffffffffffffffffffffffffffffffffffffff167f22f68de1983d980ae3f96a85b07d13614cf2fc6966b3c4c197fe099ef00263ea8460405161028c9190610656565b60405180910390a35050565b5f73ffffffffffffffffffffffffffffffffffffffff82169050919050565b5f819050919050565b5f6102da6102d56102d084610298565b6102b7565b610298565b9050919050565b5f6102eb826102c0565b9050919050565b5f6102fc826102e1565b9050919050565b61030c816102f2565b82525050565b5f6020820190506103255f830184610303565b92915050565b5f5ffd5b5f5ffd5b5f819050919050565b61034581610333565b811461034f575f5ffd5b50565b5f813590506103608161033c565b92915050565b5f5ffd5b5f5ffd5b5f5ffd5b5f5f83601f84011261038757610386610366565b5b8235905067ffffffffffffffff8111156103a4576103a361036a565b5b6020830191508360018202830111156103c0576103bf61036e565b5b9250929050565b5f5f5f604084860312156103de576103dd61032b565b5b5f6103eb86828701610352565b935050602084013567ffffffffffffffff81111561040c5761040b61032f565b5b61041886828701610372565b92509250509250925092565b5f61042e82610298565b9050919050565b61043e81610424565b82525050565b5f6020820190506104575f830184610435565b92915050565b5f819050919050565b61046f8161045d565b8114610479575f5ffd5b50565b5f8135905061048a81610466565b92915050565b5f5f604083850312156104a6576104a561032b565b5b5f6104b38582860161047c565b92505060206104c485828601610352565b9150509250929050565b5f82825260208201905092915050565b828183375f83830152505050565b5f601f19601f8301169050919050565b5f61050783856104ce565b93506105148385846104de565b61051d836104ec565b840190509392505050565b5f6020820190508181035f8301526105418184866104fc565b90509392505050565b6105538161045d565b82525050565b5f60608201905061056c5f830186610435565b6105796020830185610435565b610586604083018461054a565b949350505050565b5f8115159050919050565b6105a28161058e565b81146105ac575f5ffd5b50565b5f815190506105bd81610599565b92915050565b5f602082840312156105d8576105d761032b565b5b5f6105e5848285016105af565b91505092915050565b7f5472616e73666572206661696c656400000000000000000000000000000000005f82015250565b5f610622600f836104ce565b915061062d826105ee565b602082019050919050565b5f6020820190508181035f83015261064f81610616565b9050919050565b5f6020820190506106695f83018461054a565b9291505056fea2646970667358221220ec182c87da8b9cf7a2d9cd84788150c35698ae7b7a80befe25e1ab7755c9499c64736f6c63430008230033","linkReferences":{}},"methodIdentifiers":{"facilitator()":"7797cee4","settle(uint256,bytes32)":"c54fc656","usdc()":"3e413bee","verify_receipt(bytes32,string)":"5423513c"},"id":23}