{"abi":[{"type":"constructor","inputs":[],"stateMutability":"nonpayable"},{"type":"function","name":"CIRCLE_TOKEN_MESSENGER","inputs":[],"outputs":[{"name":"","type":"address","internalType":"address"}],"stateMutability":"view"},{"type":"function","name":"USDC_ERC20","inputs":[],"outputs":[{"name":"","type":"address","internalType":"address"}],"stateMutability":"view"},{"type":"function","name":"batchSettle","inputs":[{"name":"amounts","type":"uint256[]","internalType":"uint256[]"},{"name":"commitments","type":"bytes32[]","internalType":"bytes32[]"}],"outputs":[],"stateMutability":"nonpayable"},{"type":"function","name":"fastBalanceOf","inputs":[{"name":"account","type":"address","internalType":"address"}],"outputs":[{"name":"","type":"uint256","internalType":"uint256"}],"stateMutability":"view"},{"type":"function","name":"handleReceiveMessage","inputs":[{"name":"sourceDomain","type":"uint32","internalType":"uint32"},{"name":"sender","type":"bytes32","internalType":"bytes32"},{"name":"messageBody","type":"bytes","internalType":"bytes"}],"outputs":[{"name":"","type":"bool","internalType":"bool"}],"stateMutability":"nonpayable"},{"type":"function","name":"owner","inputs":[],"outputs":[{"name":"","type":"address","internalType":"address"}],"stateMutability":"view"},{"type":"function","name":"settle","inputs":[{"name":"amount","type":"uint256","internalType":"uint256"},{"name":"commitment","type":"bytes32","internalType":"bytes32"}],"outputs":[],"stateMutability":"nonpayable"},{"type":"event","name":"CCTPSettlement","inputs":[{"name":"sourceDomain","type":"uint32","indexed":false,"internalType":"uint32"},{"name":"agent","type":"address","indexed":true,"internalType":"address"},{"name":"amount","type":"uint256","indexed":false,"internalType":"uint256"}],"anonymous":false},{"type":"event","name":"Settled","inputs":[{"name":"agent","type":"address","indexed":true,"internalType":"address"},{"name":"amount","type":"uint256","indexed":false,"internalType":"uint256"},{"name":"commitment","type":"bytes32","indexed":false,"internalType":"bytes32"}],"anonymous":false}],"bytecode":{"object":"0x60a0604052348015600e575f5ffd5b503373ffffffffffffffffffffffffffffffffffffffff1660808173ffffffffffffffffffffffffffffffffffffffff1681525050608051610c2a61005b5f395f6102630152610c2a5ff3fe608060405234801561000f575f5ffd5b506004361061007b575f3560e01c8063a1ab461d11610059578063a1ab461d146100e9578063ae7691dd14610119578063c54fc65614610137578063cddbbfd6146101535761007b565b806363d75ad51461007f5780638da5cb5b1461009b57806396abeb70146100b9575b5f5ffd5b610099600480360381019061009491906105aa565b610171565b005b6100a3610261565b6040516100b09190610667565b60405180910390f35b6100d360048036038101906100ce9190610741565b610285565b6040516100e091906107cc565b60405180910390f35b61010360048036038101906100fe919061080f565b610400565b6040516101109190610852565b60405180910390f35b610121610468565b60405161012e9190610667565b60405180910390f35b610151600480360381019061014c9190610895565b610480565b005b61015b6104d4565b6040516101689190610667565b60405180910390f35b5f8484905090508282905081146101bd576040517f08c379a00000000000000000000000000000000000000000000000000000000081526004016101b49061092d565b60405180910390fd5b5f5f90505b81811015610259573373ffffffffffffffffffffffffffffffffffffffff167f22f68de1983d980ae3f96a85b07d13614cf2fc6966b3c4c197fe099ef00263ea8787848181106102155761021461094b565b5b9050602002013586868581811061022f5761022e61094b565b5b90506020020135604051610244929190610987565b60405180910390a280806001019150506101c2565b505050505050565b7f000000000000000000000000000000000000000000000000000000000000000081565b5f73123456789012345678901234567890123456789073ffffffffffffffffffffffffffffffffffffffff163373ffffffffffffffffffffffffffffffffffffffff1614610308576040517f08c379a00000000000000000000000000000000000000000000000000000000081526004016102ff906109f8565b60405180910390fd5b5f83835f9060149261031c93929190610a1e565b906103279190610a99565b60601c90505f848460149060349261034193929190610a1e565b9061034c9190610af7565b90508173ffffffffffffffffffffffffffffffffffffffff167f22f68de1983d980ae3f96a85b07d13614cf2fc6966b3c4c197fe099ef00263ea6103e883604051610398929190610b97565b60405180910390a28173ffffffffffffffffffffffffffffffffffffffff167f7369d5109d3252040fb944ac89a6439225c34432f21a261c3d242264bc11c207886103e86040516103ea929190610bcd565b60405180910390a2600192505050949350505050565b5f5f73777777777777777777777777777777777777777790505f6040517f70a08231000000000000000000000000000000000000000000000000000000008152846004820152602081602483865afa80610458575f5ffd5b8151925050508092505050919050565b73777777777777777777777777777777777777777781565b3373ffffffffffffffffffffffffffffffffffffffff167f22f68de1983d980ae3f96a85b07d13614cf2fc6966b3c4c197fe099ef00263ea83836040516104c8929190610987565b60405180910390a25050565b73123456789012345678901234567890123456789081565b5f5ffd5b5f5ffd5b5f5ffd5b5f5ffd5b5f5ffd5b5f5f83601f840112610515576105146104f4565b5b8235905067ffffffffffffffff811115610532576105316104f8565b5b60208301915083602082028301111561054e5761054d6104fc565b5b9250929050565b5f5f83601f84011261056a576105696104f4565b5b8235905067ffffffffffffffff811115610587576105866104f8565b5b6020830191508360208202830111156105a3576105a26104fc565b5b9250929050565b5f5f5f5f604085870312156105c2576105c16104ec565b5b5f85013567ffffffffffffffff8111156105df576105de6104f0565b5b6105eb87828801610500565b9450945050602085013567ffffffffffffffff81111561060e5761060d6104f0565b5b61061a87828801610555565b925092505092959194509250565b5f73ffffffffffffffffffffffffffffffffffffffff82169050919050565b5f61065182610628565b9050919050565b61066181610647565b82525050565b5f60208201905061067a5f830184610658565b92915050565b5f63ffffffff82169050919050565b61069881610680565b81146106a2575f5ffd5b50565b5f813590506106b38161068f565b92915050565b5f819050919050565b6106cb816106b9565b81146106d5575f5ffd5b50565b5f813590506106e6816106c2565b92915050565b5f5f83601f840112610701576107006104f4565b5b8235905067ffffffffffffffff81111561071e5761071d6104f8565b5b60208301915083600182028301111561073a576107396104fc565b5b9250929050565b5f5f5f5f60608587031215610759576107586104ec565b5b5f610766878288016106a5565b9450506020610777878288016106d8565b935050604085013567ffffffffffffffff811115610798576107976104f0565b5b6107a4878288016106ec565b925092505092959194509250565b5f8115159050919050565b6107c6816107b2565b82525050565b5f6020820190506107df5f8301846107bd565b92915050565b6107ee81610647565b81146107f8575f5ffd5b50565b5f81359050610809816107e5565b92915050565b5f60208284031215610824576108236104ec565b5b5f610831848285016107fb565b91505092915050565b5f819050919050565b61084c8161083a565b82525050565b5f6020820190506108655f830184610843565b92915050565b6108748161083a565b811461087e575f5ffd5b50565b5f8135905061088f8161086b565b92915050565b5f5f604083850312156108ab576108aa6104ec565b5b5f6108b885828601610881565b92505060206108c9858286016106d8565b9150509250929050565b5f82825260208201905092915050565b7f4172726179206d69736d617463680000000000000000000000000000000000005f82015250565b5f610917600e836108d3565b9150610922826108e3565b602082019050919050565b5f6020820190508181035f8301526109448161090b565b9050919050565b7f4e487b71000000000000000000000000000000000000000000000000000000005f52603260045260245ffd5b610981816106b9565b82525050565b5f60408201905061099a5f830185610843565b6109a76020830184610978565b9392505050565b7f4f6e6c7920436972636c65204d657373656e67657200000000000000000000005f82015250565b5f6109e26015836108d3565b91506109ed826109ae565b602082019050919050565b5f6020820190508181035f830152610a0f816109d6565b9050919050565b5f5ffd5b5f5ffd5b5f5f85851115610a3157610a30610a16565b5b83861115610a4257610a41610a1a565b5b6001850283019150848603905094509492505050565b5f82905092915050565b5f7fffffffffffffffffffffffffffffffffffffffff00000000000000000000000082169050919050565b5f82821b905092915050565b5f610aa48383610a58565b82610aaf8135610a62565b92506014821015610aef57610aea7fffffffffffffffffffffffffffffffffffffffff00000000000000000000000083601403600802610a8d565b831692505b505092915050565b5f610b028383610a58565b82610b0d81356106b9565b92506020821015610b4d57610b487fffffffffffffffffffffffffffffffffffffffffffffffffffffffffffffffff83602003600802610a8d565b831692505b505092915050565b5f819050919050565b5f819050919050565b5f610b81610b7c610b7784610b55565b610b5e565b61083a565b9050919050565b610b9181610b67565b82525050565b5f604082019050610baa5f830185610b88565b610bb76020830184610978565b9392505050565b610bc781610680565b82525050565b5f604082019050610be05f830185610bbe565b610bed6020830184610b88565b939250505056fea26469706673582212207b9aed21d0c2b9d26f43e8ee2de483c7b2830e81acd63eb07069dc7de5b3f6a064736f6c63430008230033","linkReferences":{}},"methodIdentifiers":{"CIRCLE_TOKEN_MESSENGER()":"cddbbfd6","USDC_ERC20()":"ae7691dd","batchSettle(uint256[],bytes32[])":"63d75ad5","fastBalanceOf(address)":"a1ab461d","handleReceiveMessage(uint32,bytes32,bytes)":"96abeb70","owner()":"8da5cb5b","settle(uint256,bytes32)":"c54fc656"},"id":22}